:040000001EEF01F0FE
:08000800046ED8CF05F0E0CF33
:1000100006F00001E9CF0CF0EACF07F0E1CF08F0DD
:10002000E2CF09F0D9CF0AF0DACF0BF0F3CF12F01C
:10003000F4CF13F0FACF14F000C00EF001C00FF0AF
:1000400002C010F003C011F09DA02AEF00F09EB096
:10005000C8EF00F00EC000F00FC001F010C002F0B9
:1000600011C003F00CC0E9FF07C0EAFF078E08C00B
:10007000E1FF09C0E2FF0AC0D9FF0BC0DAFF12C0DE
:10008000F3FF13C0F4FF14C0FAFF045006C0E0FFF2
:1000900005C0D8FF10002350016A225C03E222C091
:1000A00000F00CD0006A080E246E22360036235071
:1000B000005CD8B0006E0136242EF7D7000C200E5D
:1000C0001DA8300E1E6E1CC000F01CAE07D0001E16
:1000D000002A00C01CF02D0E1E6E1D8E01501CC08B
:1000E00022F0640E236ED7DF00C01CF0300E012416
:1000F0001F6E1CC022F00A0E236ECDDF300E0024CE
:10010000216E300E0124206E1EC000F01DA602D00C
:100110001DAE1D941DB80BD01DAE22D01DB420D035
:1001200000C01FF01DB21CD000C020F019D0300E4E
:100130001F5C16E100C01FF0200E1E6E1DA604D02D
:100140001D941D821DAE1D92300E205C09E100C081
:1001500020F0200E1F6E1DA6F7D71D921DAE1D901C
:100160001DA404D01E509EA8FED7AD6E1DA204D0C3
:100170001F509EA8FED7AD6E1DA004D020509EA893
:10018000FED7AD6E21509EA8FED7AD6EDCEF00F01D
:100190000B0ECF6EDC0ECE6E182A18500A0814E132
:1001A000186A19BE11D0195000080EE2190619C0BC
:1001B0001CF01F0E1D6E83D7200E9EA8FED7AD6EBD
:1001C0000A0E9EA8FED7AD6E9E902AEF00F0524612
:1001D000494420646574656374656420210A0000E5
:1001E000636C6F73696E672100000900F5520DE0C2
:1001F000F6CF1AF0F7CF1BF0F5509EA8FED7AD6EE4
:100200001AC0F6FF1BC0F7FFF0D7000C938C81BC1F
:1002100003D095908C90FAD795908C80050E196E2E
:1002200061EF01F0938E81BE03D095928C92FAD744
:1002300095928C82FF0E196E69EF01F0F86AD09EDC
:10024000078EEA6AE96A810EAF6EA60EAC6E900E5A
:10025000AB6E140E166E176A186AFF0E196EC18007
:10026000C182C184C196C180C182C184C196C19C32
:10027000C29CC29EC19EC2809698C69A949A948847
:100280009496010EC66E000EC76ED190800ED56E8C
:10029000B50ECD6E000ECA6E000ECB6E9D80C00EE8
:1002A000F212938081B003D0938281A20AD01752B8
:1002B00008E1010E176ECE0EF66E010EF76E95DF99
:1002C000A5D7195207E1E00EF66E010EF76E8DDF2D
:0802D000A9D7176AE6D7030065
:020000040030CA
:0E00000000220D0E000181000FC00FE00F4026
:00000001FF
;PIC18F452
;CRC=5413  CREATED="24-mars-20 10:19"
