:0400000009EF01F013
:08000800046ED8CF05F0E0CF33
:1000100006F00001E9CF0CF0EACF07F0E1CF08F0DD
:10002000E2CF09F0D9CF0AF0DACF0BF0F3CF12F01C
:10003000F4CF13F0FACF14F000C00EF001C00FF0AF
:1000400002C010F003C011F09DA02AEF00F09EB096
:10005000C8EF00F00EC000F00FC001F010C002F0B9
:1000600011C003F00CC0E9FF07C0EAFF078E08C00B
:10007000E1FF09C0E2FF0AC0D9FF0BC0DAFF12C0DE
:10008000F3FF13C0F4FF14C0FAFF045006C0E0FFF2
:1000900005C0D8FF10002150016A205C03E220C097
:1000A00000F00CD0006A080E226E20360036215077
:1000B000005CD8B0006E0136222EF7D7000C200E5F
:1000C0001BA8300E1C6E1AC000F01AAE07D0001E1E
:1000D000002A00C01AF02D0E1C6E1B8E01501AC093
:1000E00020F0640E216ED7DF00C01AF0300E01241C
:1000F0001D6E1AC020F00A0E216ECDDF300E0024D6
:100100001F6E300E01241E6E1CC000F01BA602D014
:100110001BAE1B941BB80BD01BAE22D01BB420D03F
:1001200000C01DF01BB21CD000C01EF019D0300E54
:100130001D5C16E100C01DF0200E1C6E1BA604D035
:100140001B941B821BAE1B92300E1E5C09E100C08B
:100150001EF0200E1D6E1BA6F7D71B921BAE1B9028
:100160001BA404D01C509EA8FED7AD6E1BA204D0C9
:100170001D509EA8FED7AD6E1BA004D01E509EA899
:10018000FED7AD6E1F509EA8FED7AD6EDCEF00F01F
:100190000B0ECF6EDC0ECE6E182A18500A0818E12E
:1001A000186A19BE15D01950000812E2190619C0B4
:1001B0001AF01F0E1B6E83D7200E9EA8FED7AD6EC1
:1001C0000D0E9EA8FED7AD6E0A0E9EA8FED7AD6E90
:1001D0009E902AEF00F0938C81AC03D095908C9088
:1001E000FAD795908C80050E196E000C938E81AE17
:1001F00006D0938681B603D095928C92F7D79592CC
:100200008C82FF0E196E938681A601D0E4DF4DEF3C
:1002100001F0F86AD09E078EEA6AE96A810EAF6E35
:10022000A60EAC6E900EAB6E140E166E176A186AA0
:10023000FF0E196EC180C182C184C196C180C18286
:10024000C184C196C19CC29CC29EC19EC280969828
:10025000C69A949A94889496010EC66E000EC76E44
:10026000D190800ED56EB50ECD6E000ECA6E000E0A
:10027000CB6E9D80C00EF212938081B006D0938227
:1002800081B203D0938481A405D0175203E1010EFB
:10029000176EA1DF195202E1A9D7176AEDD7030043
:020000040030CA
:0E00000000220D0E000181000FC00FE00F4026
:00000001FF
;PIC18F452
;CRC=D4EA  CREATED="24-mars-20 11:50"
