:0400000049EF02F0D2
:08000800046ED8CF05F0E0CF33
:1000100006F00001E9CF0CF0EACF07F0E1CF08F0DD
:10002000E2CF09F0D9CF0AF0DACF0BF0F3CF12F01C
:10003000F4CF13F0FACF14F000C00EF001C00FF0AF
:1000400002C010F003C011F09DA02AEF00F09EB096
:1000500051EF00F0F2A830EF00F0F2B2B6EF00F08E
:100060000EC000F00FC001F010C002F011C003F08C
:100070000CC0E9FF07C0EAFF078E08C0E1FF09C016
:10008000E2FF0AC0D9FF0BC0DAFF12C0F3FF13C0B2
:10009000F4FF14C0FAFF045006C0E0FF05C0D8FF0B
:1000A00010000B0ECF6EDC0ECE6E172A17500A080A
:1000B00013E1176A19BE04D01950000801E21906AD
:1000C0001ABE04D01A50000801E21A061BBE04D062
:1000D0001B50000801E21B069E9030EF00F0006A02
:1000E000016A2250D89023B000260032013223B298
:1000F00000260032013223B400260032013223B63A
:1001000000260032013223B800260032013223BA21
:1001100000260032013223BC00260032013223BE09
:10012000002600320132000C94928B9294948B94AE
:10013000949A8B9A94988B9896908D9096928D9293
:10014000FF0E196E1A6E1B6E78EF01F00900F6CFE4
:1001500023F0F7CF24F0F5509EA8FED7AD6E23C054
:10016000F6FF24C0F7FF222EF1D7000C95908C806B
:1001700095928C9295948C94958683A60CD0310E92
:100180009EA8FED7AD6E0A0E226E18C023F0A7DF20
:10019000010E0124186E958883A80CD0340E9EA8F9
:1001A000FED7AD6E0A0E226E18C023F098DF040E43
:1001B0000124186E958A83AA0CD0370E9EA8FED70C
:1001C000AD6E0A0E226E18C023F089DF070E0124DF
:1001D000186E958C83AC0DD0FE0E9EA8FED7AD6E2A
:1001E000010E9EA8FED7AD6E200E9EA8FED7AD6E66
:1001F000186A95908C9095928C8295948C949586A3
:1002000083A60CD0320E9EA8FED7AD6E0A0E226ECB
:1002100018C023F064DF020E0124186E958883A8AD
:100220000CD0350E9EA8FED7AD6E0A0E226E18C0F9
:1002300023F055DF050E0124186E958A83AA0CD091
:10024000380E9EA8FED7AD6E0A0E226E18C023F09F
:1002500046DF080E0124186E958C83AC0BD0300E4F
:100260009EA8FED7AD6E0A0E226E18C023F037DFAF
:1002700001C018F095908C9095928C9295948C84F6
:10028000958683A60CD0330E9EA8FED7AD6E0A0EBF
:10029000226E18C023F023DF030E0124186E958808
:1002A00083A80CD0360E9EA8FED7AD6E0A0E226E25
:1002B00018C023F014DF060E0124186E958A83AA55
:1002C0000CD0390E9EA8FED7AD6E0A0E226E18C055
:1002D00023F005DF090E0124186E958C83AC5BD0EA
:1002E000230E9EA8FED7AD6E1850210829E11CD719
:1002F0001E5216E01C6A1D6AFE0E9EA8FED7AD6E49
:10030000010E9EA8FED7AD6EAC0EF66E030EF76E14
:100310000A0E226E1BDF050E196E929089800FD097
:10032000FE0E9EA8FED7AD6E010E9EA8FED7AD6E46
:10033000BC0EF66E030EF76E1A0E226E07DF2AD081
:100340001850800818E1FE0E9EA8FED7AD6E010E73
:100350009EA8FED7AD6EDC0EF66E030EF76E0B0E8A
:10036000226EF4DEFF0E1C6E92908990939E8A9E00
:1003700094908B900FD0FE0E9EA8FED7AD6E010E0E
:100380009EA8FED7AD6EEC0EF66E030EF76E0A0E4B
:10039000226EDCDE186A95908C8095928C82959402
:1003A0008C84F29230EF00F02563256320416C616C
:1003B000726D65204F4E000025632563204D6169F5
:1003C000736F6E206F7576657274650A416E6E7517
:1003D0006C6174696F6E00002563256320416C6158
:1003E000726D65204F4646002563256320436F6488
:1003F00065206661757800002563256320416C6582
:100400007274652C20706F72746520310000256352
:10041000256320416C657274652C20706F72746561
:10042000203200002563256320416C657274652CC1
:100430002066656EEA7472652031000025632563CD
:1004400020416C657274652C2066656EEA74726575
:10045000203200002563256320416C657274652C91
:100460002066656EEA74726520330000256325639B
:1004700020416C657274652C2066656EEA74726545
:10048000203400000A0E1A6E010E1D6E939E8A8E95
:10049000000CF86AD09E078EEA6AE96A810EAF6E98
:1004A000A60EAC6E900EAB6E176A186AFF0E196E30
:1004B0001A6E1B6E1C6A1D6A938281A20FD09384F0
:1004C00081A40CD0938681A609D0938881A806D0F8
:1004D000938A81AA03D0938C81BC02D0000E01D0F4
:1004E000010E1E6EC180C182C184C196C180C182CD
:1004F000C184C196C19CC29CC29EC19EC280969876
:10050000C69A949A94889496010EC66E000EC76E91
:10051000D190800ED56EB50ECD6E000ECA6E000E57
:10052000CB6E9D80F288C00EF21295908C809592D1
:100530008C8295948C84195208E11C5206E1010EBC
:100540001C6E9290899094908B801D2C06D01A522C
:1005500004E1FF0E1D6E939E8A9E1B523AE11C2CF5
:1005600038D01D5201E18EDF938A81BA18D0FE0E79
:100570009EA8FED7AD6E010E9EA8FED7AD6EFC0EF6
:10058000F66E030EF76E166AF2BE168EF29E100E0F
:10059000226EDCDD16BEF28E96908D801AD0938C82
:1005A00081BC17D0FE0E9EA8FED7AD6E010E9EA890
:1005B000FED7AD6E120EF66E040EF76E166AF2BE20
:1005C000168EF29E100E226EC1DD16BEF28E96922F
:1005D0008D821C2C85D0938281B21BD0FE0E9EA8EA
:1005E000FED7AD6E010E9EA8FED7AD6E280EF66E3C
:1005F000040EF76E166AF2BE168EF29E120E226E70
:10060000A5DD16BEF28E94928B821D5201E13ADF77
:1006100067D0938481B41BD0FE0E9EA8FED7AD6E2A
:10062000010E9EA8FED7AD6E400EF66E040EF76E5C
:10063000166AF2BE168EF29E120E226E87DD16BE6E
:10064000F28E94948B841D5201E11CDF49D0938675
:1006500081B61BD0FE0E9EA8FED7AD6E010E9EA8E1
:10066000FED7AD6E580EF66E040EF76E166AF2BE29
:10067000168EF29E120E226E69DD16BEF28E949ACE
:100680008B8A1D5201E1FEDE2BD0938881B81BD0EE
:10069000FE0E9EA8FED7AD6E010E9EA8FED7AD6ED3
:1006A000700EF66E040EF76E166AF2BE168EF29E8D
:1006B000120E226E4BDD16BEF28E94988B881D5260
:1006C00001E1E0DE0DD0938A81AA03D0938C81BC36
:1006D00007D01B50FF0804E192908980050E1B6E25
:0406E0002AD7030012
:020000040030CA
:0E00000000220D0E000181000FC00FE00F4026
:00000001FF
;PIC18F452
;CRC=1E30  CREATED="17-mars-20 13:49"
