:0400000024EF02F0F7
:08000800046ED8CF05F0E0CF33
:1000100006F00001E9CF0CF0EACF07F0E1CF08F0DD
:10002000E2CF09F0D9CF0AF0DACF0BF0F3CF12F01C
:10003000F4CF13F0FACF14F000C00EF001C00FF0AF
:1000400002C010F003C011F09DA02AEF00F09EB096
:1000500051EF00F0F2A830EF00F0F2B2A4EF00F0A0
:100060000EC000F00FC001F010C002F011C003F08C
:100070000CC0E9FF07C0EAFF078E08C0E1FF09C016
:10008000E2FF0AC0D9FF0BC0DAFF12C0F3FF13C0B2
:10009000F4FF14C0FAFF045006C0E0FF05C0D8FF0B
:1000A00010000B0ECF6EDC0ECE6E172A17500A080A
:1000B00013E1176A19BE04D01950000801E21906AD
:1000C0001ABE04D01A50000801E21A061BBE04D062
:1000D0001B50000801E21B069E9030EF00F0006A02
:1000E000016A2150D89022B000260032013222B29B
:1000F00000260032013222B400260032013222B63C
:1001000000260032013222B800260032013222BA23
:1001100000260032013222BC00260032013222BE0B
:10012000002600320132000C0900F6CF22F0F7CF92
:1001300023F0F5509EA8FED7AD6E22C0F6FF23C077
:10014000F7FF212EF1D7000C95908C8095928C9220
:1001500095948C94958683A60CD0310E9EA8FED7DC
:10016000AD6E0A0E216E18C022F0B9DF010E012417
:10017000186E958883A80CD0340E9EA8FED7AD6E5D
:100180000A0E216E18C022F0AADF040E0124186E98
:10019000958A83AA0CD0370E9EA8FED7AD6E0A0EA4
:1001A000216E18C022F09BDF070E0124186E958C7B
:1001B00083AC0DD0FE0E9EA8FED7AD6E010E9EA89C
:1001C000FED7AD6E200E9EA8FED7AD6E186A959034
:1001D0008C9095928C8295948C94958683A60CD065
:1001E000320E9EA8FED7AD6E0A0E216E18C022F008
:1001F00076DF020E0124186E958883A80CD0350E88
:100200009EA8FED7AD6E0A0E216E18C022F067DFE1
:10021000050E0124186E958A83AA0CD0380E9EA86C
:10022000FED7AD6E0A0E216E18C022F058DF080E00
:100230000124186E958C83AC0BD0300E9EA8FED78F
:10024000AD6E0A0E216E18C022F049DF01C018F011
:1002500095908C9095928C9295948C84958683A69B
:100260000CD0330E9EA8FED7AD6E0A0E216E18C0BC
:1002700022F035DF030E0124186E958883A80CD078
:10028000360E9EA8FED7AD6E0A0E216E18C022F063
:1002900026DF060E0124186E958A83AA0CD0390E2B
:1002A0009EA8FED7AD6E0A0E216E18C022F017DF91
:1002B000090E0124186E958C83AC58D0230E9EA88D
:1002C000FED7AD6E1850210826E194928B9294943B
:1002D0008B94949A8B9A94988B9896908D909692F2
:1002E0008D92FF0E196E1A6E1B6E1C6A1D6AFE0E31
:1002F0009EA8FED7AD6E010E9EA8FED7AD6E820EF3
:10030000F66E030EF76E0A0E216E0EDF050E196EE5
:10031000929089802AD01850800818E1FE0E9EA87D
:10032000FED7AD6E010E9EA8FED7AD6E920EF66E94
:10033000030EF76E0B0E216EF7DEFF0E1C6E929011
:100340008990939E8A9E94908B900FD0FE0E9EA8CB
:10035000FED7AD6E010E9EA8FED7AD6EA20EF66E54
:10036000030EF76E0A0E216EDFDE186A95908C8000
:1003700095928C8295948C84F29230EF00F02563F4
:10038000256320416C61726D65204F4E000025632E
:10039000256320416C61726D65204F4646002563E0
:1003A000256320436F6465206661757800002563CE
:1003B000256320416C657274652C20706F727465C2
:1003C000203100002563256320416C657274652C23
:1003D00020706F7274652032000025632563204110
:1003E0006C657274652C2066656EEA7472652031E6
:1003F00000002563256320416C657274652C2066BE
:10040000656EEA7472652032000025632563204121
:100410006C657274652C2066656EEA7472652033B3
:1004200000002563256320416C657274652C20668D
:10043000656EEA747265203400000A0E1A6E010EB1
:100440001D6E939E8A8E000CF86AD09E078EEA6A13
:10045000E96A810EAF6EA60EAC6E900EAB6E176A97
:10046000186AFF0E196E1A6E1B6E1C6A1D6AC18017
:10047000C182C184C196C180C182C184C196C19C20
:10048000C29CC29EC19EC2809698C69A949A948835
:100490009496010EC66E000EC76ED190800ED56E7A
:1004A000B50ECD6E000ECA6E000ECB6E9D80F2882A
:1004B000C00EF21295908C8095928C8295948C84CB
:1004C000195208E11C5206E1010E1C6E92908990AF
:1004D00094908B801D2C06D01A5204E1FF0E1D6EE5
:1004E000939E8A9E1B523AE11C2C38D01D5201E18A
:1004F000A4DF938A81BA18D0FE0E9EA8FED7AD6EF7
:10050000010E9EA8FED7AD6EB20EF66E030EF76E0C
:10051000166AF2BE168EF29E100E216E05DE16BE13
:10052000F28E96908D801AD0938C81BC17D0FE0EDF
:100530009EA8FED7AD6E010E9EA8FED7AD6EC80E6A
:10054000F66E030EF76E166AF2BE168EF29E100E4F
:10055000216EEADD16BEF28E96928D821C2C85D01D
:10056000938281B21BD0FE0E9EA8FED7AD6E010E07
:100570009EA8FED7AD6EDE0EF66E030EF76E166AFF
:10058000F2BE168EF29E120E216ECEDD16BEF28ED9
:1005900094928B821D5201E150DF67D0938481B425
:1005A0001BD0FE0E9EA8FED7AD6E010E9EA8FED7F4
:1005B000AD6EF60EF66E030EF76E166AF2BE168E6E
:1005C000F29E120E216EB0DD16BEF28E94948B84D4
:1005D0001D5201E132DF49D0938681B61BD0FE0E59
:1005E0009EA8FED7AD6E010E9EA8FED7AD6E0E0E74
:1005F000F66E040EF76E166AF2BE168EF29E120E9C
:10060000216E92DD16BEF28E949A8B8A1D5201E104
:1006100014DF2BD0938881B81BD0FE0E9EA8FED786
:10062000AD6E010E9EA8FED7AD6E260EF66E040EC0
:10063000F76E166AF2BE168EF29E120E216E74DDF1
:1006400016BEF28E94988B881D5201E1F6DE0DD015
:10065000938A81AA03D0938C81BC07D01B50FF08DA
:0E06600004E192908980050E1B6E2AD70300DC
:020000040030CA
:0E00000000220D0E000181000FC00FE00F4026
:00000001FF
;PIC18F452
;CRC=584F  CREATED="17-mars-20 11:06"
